:20000000001E0020F1000000D1000000D70000000000000000000000000000000000000009
:20002000000000000000000000000000DD0000000000000000000000E3000000E900000017
:200040004B010000450100000000000000000000000000003F010000000000003901000094
:20006000330100002D01000027010000210100001B010000150100000F0100000000000092
:20008000000000000000000007010000FF0000000000000000000000000000000000000059
:2000A000000000000000000000000000000000000000000000000000000000000000000040
:2000C00082001068116070478200106C116470471F48806800471E48C06800471C48C06ADB
:2000E00000471B48806B00471948C06B0047704710B518490020C86100F052FB10BD1448C5
:200100008030C068004712488030806800471048806F00470E48406F00470D48006F0047A2
:200120000B48C06E00470A48806E00470848406E00470748006E00470548C06D004704481A
:20014000406D00470248406C00470148006C0047000C0000401000F0000000000000000026
:2001600000000000000000000000000000000000000000000000000000000000000000007F
:2001800010B507E013469C00241F521E9B000C591B1FC450002AF5D110BD30B504460020B1
:2001A0000F221207136818258907AB43C90E0B431360116889088900491C1160411E2160DE
:2001C000116804231943116011684907FCD430BD10B500230F2212071468A408A400A41C6E
:2001E00014600160106804210843106010684007FCD4184610BDD649012008607047F0B514
:2002000004460020844620680F46401C1AD0D14E200A0502402231462846FFF7B1FF601BCF
:200220008010C117890F08188010800037500024A00031584019FFF7CBFF641C402CF7D3EB
:200240006046F0BD2046FFF7C3FFF9E7C24800210161C24A42618161C14A916003210161AD
:200260007047BD490020086148618861BC498860704710B500231A4603E0845CE3185BB2EF
:20028000521C8A42F9D3D8B210BDB5488168491C81600120B34940064860704738B5020C18
:2002A000B14B01290BD0032189028A423AD3D96B914237D3AD490968012904D00AE0D96B01
:2002C00091422FD9F6E70B2109028A4202D20121490752189107890F0004521A000E0025E0
:2002E000A34C6B46102822D006DC012809D002280DD0042815D116E020281DD0402810D1C3
:2003000021E0104612680092227D5A5406E0104612680092A28A490849005A520099FFF7E4
:200320006EFF656138BD616910460091F7E710680090585C207538BD480811684000009126
:20034000185AA08238BD1068606138BDF0B50024020C854B01290BD0032189028A4225D3C7
:20036000D96B914222D381490968012904D00AE0D96B91421AD9F6E70B2109028A4202D290
:200380000121490752189107890F561A0004050E0AE0A100764A88198F187969FFF72FFF31
:2003A00000207861641CE4B2AC42F2D3F0BDF0B56E4887B0006800250126002838D06D4C9F
:2003C00020680690FFF74DFF6A496017803108605F490860624E0127376167490F20FFF725
:2003E0006FFE039065490020FFF76EFE059064490120FFF769FE0490FFF728FF01210846EC
:2004000000F0C4F82760022020606846057256490020CA6B0092CA6B0192019B009A9A4282
:2004200017D1401C6428F4D93069002813D014E000F0A6FB4D48403845635249816341047D
:20044000C1634A490E60C1694F4A1143C16107B0F0BD0020DDE7012A18D0B069C0B24228EE
:20046000B06935D0C0B25228B06936D0C0B2442838D0B069C0B25528C9D100273C463B499E
:2004800020020968381801294FD055E03748056036484038C16901221143C161FFF7E1FE89
:2004A00000203449C04380310860294908600F200399FFF705FE00200599FFF705FE01200D
:2004C0000499FFF701FE2B49069808603561BEE76946097AFFF7E2FE25E06946097AFFF7A0
:2004E00035FF20E003277F0300242003381A0121FFF753FE641C062CF7D30327BF0200248F
:20050000200238180021FFF748FE641C042CF7D307273F030024200238180021FFF73DFE3A
:20052000641C0F2CF7D3B56171E70B210902884202D20121490740180021FFF72EFE641C66
:200540000C2C9CD3B5610120694608725FE7000080E200E0001E002000E000E0D514000025
:20056000000C002000ED00E0C07E0000401000F0001F002000E100E08B020000F70100007F
:2005800001070000FF0A000001020000012279485202C26177494031CB69CB695B085B0095
:2005A000CB61C1691143C1617348016AD20111430162016A090A090276310162016A52006F
:2005C0009143016238214163704770B58407020AA40F1206694B120E01D0012A03D10525DB
:2005E0002D0340195032664D1F2A2BD0403A1F2A41D802462A40AD0652191568E400FF26C7
:20060000A640B543A140294311605E49884205D15D4AD16801246405A143D1605B49884206
:2006200029D1564A103A107C5949002444281CD00DDC102812D0202813D0402813D0422849
:2006400018D112E002462A4001256D07D4E74F280ED0522809D055280CD106E00120086146
:2006600008E00C6106E0507C03E01868886101E00F2048611461002070BD010A10B50906CD
:20068000090E01D0012903D105221203801850310B46103B3A4A0F2B04D80146114001222E
:2006A000520713E00B467B3B742B05D80146114007221203891A0AE070390A29014602D80B
:2006C0001140344A02E011400F221207891882070868920F30490978CB072749CB6A07D04B
:2006E000FF242402D200D040A3430006000C04E01B0A1B02D200D040C0B20343CB6210BD1D
:20070000F0B51D49086B8006800E8863CA6A224C150C25608A6A120C62604B6A87069BB2B1
:2007200001262361002F02DA5B192361A672C30603D523699B182361E672000700D5A67243
:20074000E07A002500280AD0D007886A01D00004000E2072C1B22069FFF737FFE572A07A41
:20076000002803D02069FFF788FFA5720B4902200860F0BD001000F0009000F0101F002007
:20078000FCFF00004E500000405000F0101F0000000C00200090FF1FF40C002080E200E0D5
:2007A0001CB54948416B022291434163474B986B910708439863464E0022F261C8174549A6
:2007C00008604549086000F0F3F94448026142613E4843493830002420C920C0641C0F2C2B
:2007E000FAD34048016A0124240421430162016A090A090276310162016A6400A14301627C
:200800003248C038C16AC024A143C162C16A18242143C162C16A06242143C162324C226185
:200820006261A261E261012525606260A26000207D21C90000BF401C8842FBD3D86B0121A1
:2008400009038843D863264F00202849783F00BF401C8842FBD30020F96B0091F96B01910B
:20086000019A00999142F6D1401C6428F4D9786B401C18D0B86B401C15D0796B03208002E1
:2008800081420FD9796B164A483A91420AD8796B091AFFF7EEFC12495839097E08180006B2
:2008A000000E00D025613068012800D125612069012802D00098012802D0FFF778FDCAE789
:2008C00000F0FEF9C7E70000004000F0005100F0401000F080E100E080E200E0001F002010
:2008E000387F0000009000F0000C0020B80B000000000000000000000000000000000000D2
:200900000000000000000000000000000000000000000000000000000000000000000000D7
:200920000000000000000000000000000000000000000000000000000000000000000000B7
:20094000000000000000000000000000000000000000000000000000000000000000000097
:20096000000000000000000000000000000000000000000000000000000000000000000077
:20098000000000000000000000000000000000000000000000000000000000000000000057
:2009A000000000000000000000000000000000000000000000000000000000000000000037
:2009C000000000000000000000000000000000000000000000000000000000000000000017
:2009E0000000000000000000000000000000000000000000000000000000000000000000F7
:200A00000000000000000000000000000000000000000000000000000000000000000000D6
:200A20000000000000000000000000000000000000000000000000000000000000000000B6
:200A4000000000000000000000000000000000000000000000000000000000000000000096
:200A6000000000000000000000000000000000000000000000000000000000000000000076
:200A8000000000000000000000000000000000000000000000000000000000000000000056
:200AA000000000000000000000000000000000000000000000000000000000000000000036
:200AC000000000000000000000000000000000000000000000000000000000000000000016
:200AE0000000000000000000000000000000000000000000000000000000000000000000F6
:200B00000000000000000000000000000000000000000000000000000000000000000000D5
:200B20000000000000000000000000000000000000000000000000000000000000000000B5
:200B4000000000000000000000000000000000000000000000000000000000000000000095
:200B6000000000000000000000000000000000000000000000000000000000000000000075
:200B8000012110B5002349070B200002401E1C5C0C54C028FAD801221203C020401E145CF8
:200BA0000B460C54FAD1064808600648586010BD054900200861486188610449486070471B
:200BC000001E0020F100000000E000E0000C002000000000000000000000000000000000FA
:200BE0000000000000000000000000000000000000000000000000000000000000000000F5
:200C0000001E0020F1000000750E0000770E0000000000000000000000000000000000009D
:200C2000000000000000000000000000790E000000000000000000007B0E00003123000050
:200C4000290F000067140000000000000000000000000000DF25000000000000EB0E0000E4
:200C6000E10E00006D240000CD0E0000952300009D0F0000870F00002D0F000000000000E3
:200C800000000000000000009B0E0000910E0000000000000000000000000000000000000C
:200CA000000000000000000000000000000000000000000000000000000000000000000034
:200CC000F8B5FF2401F040FB00255F4F01263E605E4928468200401C8D504028FAD35C49D6
:200CE0000020421E8300401CCA501028FAD301F01EFD00207D21890100BF401C8842FBD36F
:200D000001F0E0FB0121084601F0F3FB05F0E6F900906846C670009805F0F6F90F2005F0D0
:200D2000D3F9002004F066FC4A4804F049FD012000F0E2FC012000F0E8FC012005F036FA7B
:200D4000012005F03DFA002005F085F9002005F071F901208003386000F0A6FB3E48416838
:200D60000226B143416002F0DBF802F0DDF801F0C5FD01F0CAFD3949CA6B03231B029A43E8
:200D8000CA63CA6B1B059A43CA63344940310A6832430A600A6833021A430A600A68DB00CD
:200DA0001A430A60012831D002282FD0032830D004282ED0032004F01DFC0321072004F055
:200DC00039FC04F0B9FBCF2004F0D8FB072004F007FC072005F03CFB072005F043FB0D2088
:200DE00005F04AFB01F05AFE7D210901884202DD012005F023FB154F803F05F01AFB064672
:200E0000A0420DD0002E07D0012006E003F00AF8DFE703F053FCDCE7002001F0A0FE34461E
:200E200001F052FE01F004FF01F028FE012801D104F00EFA02F07CF838690128DDD1044845
:200E400010380561F8BD000000E100E0800C0020101F00207C150000005100F0401000F061
:200E60000348854605F0F0FE00480047A1070000001E00207047FEE7704701202849C00659
:200E80004860704701202649400648607047FEE710B5132000F03DF810BD10B5122000F008
:200EA00038F810BD10B50E2000F033F810BD10B50D2000F02EF810BD10B50C2000F029F883
:200EC00010BD10B50B2000F024F810BD10B50A2000F01FF810BD10B5092000F01AF810BDFC
:200EE00010B5082000F015F810BD10B5072000F010F810BD10B5052000F00BF810BD10B51B
:200F0000012000F006F810BD10B5002000F001F810BDC106C90E0120884002490860704769
:200F200000ED00E080E200E07047000010B505F0A3F81E21884344086400204605F08BF8FE
:200F4000600603D50121084601F0DBFF200603D50121022001F0D5FFE00503D5012104200E
:200F600001F0CFFFA00503D50121082001F0C9FF600503D50121102001F0C3FF012028495E
:200F80008003086010BD10B5FF200021013000F0FFFA012022494003086010BD10B500F0C1
:200FA00003FBFF2104460131884300F0EEFA204603F0C1F8204603F0DBF8204603F0DFFB83
:200FC000600402D5012001F039FF600201D501F0D1F8200201D501F0BAF8E00101D501F057
:200FE0009EF9A00101D501F061F9600101D501F02AF920010FD504F019F903280BD004F048
:2010000079FF002807D100F04AFF012003F0A4FE012004F0F1FF012001490003086010BDC1
:2010200080E200E010B544283AD014DC2B2845D03C281CD040280DD104F04DFB032803D00B
:2010400005F028F8002803D0002001F004FF80B204F096FB10BD462829D0482852D0FF38B8
:201060006528F7D104F070FD04F0AAFF10BD04F032FB032803D005F00DF8002803D002201A
:2010800001F0E9FE0AE004F017FF012803D0002004F06EFB10BD022000F072FB80B2F7E7AF
:2010A000012001F0D8FE80B204F07CFB10BD032001F0D1FE80B204F07CFB10BD01F098FE0A
:2010C00004F0ADFB04F007FB012805D0022803D0032803D0002012E0042010E004F09AF8D9
:2010E000012809D003F00CFF012807D004F0A8F8012803D0082002E00A2000E0092004F02F
:2011000097FB10BD04F0E7FA0328FAD000F000FA0146D94805F0FCFB80B204F096FD10BDE2
:2011200010B50C464E280CD04F2809D1880707D50121072004F0DDFA0121082001F0D0FE6D
:2011400010BDA00602D5012004F04CFFE00603D50121042001F0C4FE200703D501210220EB
:2011600001F0BEFEE00703D00121084601F0B8FE600703D50020C149C043C861A0070AD5D6
:2011800000F0E1F9012817D0012000F0D3F90021052004F0AEFA2006D2D504F03BF8012899
:2011A0000CD0012004F03AF8012004F025FF0021012004F09EFA10BD0020E6E70020F1E753
:2011C00038B5044601F014FE002817D1022C16D0072C01D00F2C11D1012005F01FF9002141
:2011E000802004F064FA0021802004F04EFA0021102004F023FF002004F042FF38BD00202F
:20120000694608704870684604F000FFE7E7F8B5044600699A4E8107890F0091010A0D0669
:201220009849994F2D0E04D0012D2DD01F2D37D02DE082B24018502520613E2A20D04E2AF9
:2012400004D04F2A13D0692A21D115E0217A1046FFF766FF207A810702D5FD2108402072A7
:20126000C0B2010613D54006400E20720FE0217A1046FFF755FF0AE0207AFFF7A1FF06E0BD
:20128000022001F04AFE02E0401851252061284640381F2834D820690F213840090702E066
:2012A000384001214907401802680099FF23C9008B409A43237A8B401343036071492069F2
:2012C0004E31884209D10021084604F012FA207A800602D5002004F085FE6C4920698842E6
:2012E00028D1674A103A107C6949002342281BD00EDC102811D0202812D0402819D111E0D4
:20130000083D072D16D801212069C902401AC7E74F280CD052280CD106E00120086108E0E6
:201320000B6106E0507C03E03068886101E00F20486113610020F8BD70B50C460969080A2E
:201340000006000E01D0012803D14E4A8918503021610246103A4C490F2A04D82069084063
:20136000012149071BE002467B3A742A05D82069084007210903401A12E00246703A0A2A11
:2013800003D820690840434909E008380728206902D80840404902E008400F2109074018C7
:2013A000216905688E07B60F36482030814205D100F0C9F8802101280DD08D432078C107ED
:2013C0003648C16A09D0FF2212029143F200D5402A06120C06E00D43F0E7090A0902F20010
:2013E000D540EAB21143C16270BDF8B52B4D06462B4C286B8006800EA863E96A090C216015
:20140000A96A090C6160696A830689B201222161002B03DA2368C9182161A272C10604D5FD
:2014200063682169C9182161E272000703D5A2722069FFF7F7FDE07A002700280AD020791E
:20144000C007A86A01D00004000E20722046FFF7DEFEE772A07A002804D021463046FFF7C4
:201460006BFFA772F8BD10B50020FFF7BEFF0D490220086010BD000000881300001000F054
:20148000101F002000500000FCFF0000101F0000000C00200090FF1F00F8FF1F009000F013
:2014A000080D002080E200E0FE49002008707047FD4A516B0223C0079943800F01435163CD
:2014C0007047F94A51680123DB03C0079943000C014351607047F44800680006C00F7047CC
:2014E00010B5F1480069F14C01052078090D49304843C82105F00CFAED4980B24843ED4983
:2015000005F01CFA01216156C900401880B210BDE548006AC004000D7047E3484030806825
:201520008003C00B7047E048006A0004800F00D001207047DC4A516B8023C0079943000EA3
:20154000014351637047D848406B0006C00F704710B5D54CE269D84B9202920A1A400303A1
:20156000134388051843E06110BDCF4AD169D14B5B42194040000843D0617047CA4AD169F9
:20158000490849000143D1617047C74908637047C54A012905D0002902D1116B8143116394
:2015A0007047116B0143FAE7BF48806A7047BE49C8627047BC4A012905D0002902D1D16A07
:2015C0008143D1627047D16A0143FAE7B64A11689301C0079943C00A01431160704710B552
:2015E000B1494A6803789202920A9B051A434A604A680323DB049A4343789B07DB0A1A43BA
:201600004A604A6807231B049A4383785B075B0B1A434A60A44A40321368C4781B091B0127
:201620002407240F234313601368F024A34304792407240E234313604B68CC01A343447928
:20164000E407A40A23434B6011680123C0799B05C0079943400A0143116010BD012805D0FD
:2016600002280DD004280DD008280DD000208E4A516803235B03994340030143516070474D
:201680000120F4E70220F2E70320F0E786494A6807239B029A4303785B07DB0C1A434A6069
:2016A0004A687C239A434378DB065B0E1A434A604A68FF2301339A438378DB07DB0D1A43E9
:2016C0004A604A68C0788023C0079A43000E02434A60486B4022104348637047724A5168F3
:2016E0007C23C0069943400E0143516070476E4840684006C00E70476B4A516B1023C0071B
:201700009943C00E014351637047674A516B0823C0079943000F0143516370476249496A19
:20172000014201D001207047002070471CB55E49CA686B46120E1A70CA681202120E5A70B1
:20174000CA681204120E9A70CA681206520FDA70C9680522C906C90E1971194605F002F94B
:201760001CBD51490068886070474F480830006870474D490068086070474B480068704732
:20178000F0B5494C4D4D85B0020011D0012A2DD0022A7DD0032809D1606949490001000D4E
:2017A0004843484905F0CAF84749401805B0F0BD012102A800F06CFF03990298019100908D
:2017C00020696A4601051078090D493048430C214843294605F0B2F835494843354905F0E6
:2017E000ADF86A465188C90009B2DEE7206900210001040D02A800F04BFF0298009003990C
:2018000028480191FF27FF260078413719362F4D002804D004F06EFB012818D01CE06A46AA
:2018200010792D214930604348434B21C90105F085F82249C8314843254905F07FF86A4609
:201840000621515E4018174901220A7043E06869B84201D9002007E004F04CFB002807D153
:201860006869B04204D2012004F054FB686932E004F040FB01286A4632D0107849306043DA
:201880000101081A4B21490105F058F80B4900E038E0C8314843074905F050F86A460221F9
:2018A000515E17E0800C0020004000F0990C0020E8800000FF0F0000FF0FC0FFD0070000C7
:2018C00074B90200102700005C95FFFF1C0D0020FD2F00004018002800DA0020686165E7AF
:2018E00010792D214930604348434B21C90105F025F8FE494843FE4905F020F86A46062125
:20190000515ECEE7606901210405240D02A800F0BFFE039902986A460191009010790C2129
:20192000493060434843294605F008F8F1494843F14905F003F86A460621515EC900401806
:201940000028CCDC002031E7EC480021016041608160C16001618161C16101627047E84975
:20196000486AC005FCD5E5480B6902681B051B0DD218026042680B691B011B0DD218426092
:2019800082684B691B051B0DD2188260C26849690901090D5118C1608169491C8161704727
:2019A000D749486AC005FCD5D4480B6902681B051B0DD218026082684B691B051B0DD21861
:2019C0008260C26849690901090D5118C160C169491CC1617047CA48416AC905FCD5C749CB
:2019E00000694A680001000D10184860086A401C08627047C249486AC005FCD5BF480B6931
:201A000002681B051B0DD218026082684B691B051B0DD2188260C2684B691B011B0DD2180A
:201A2000C260426809690901090D51184160016A491C0162C169491CC1617047F0B57D245D
:201A400085B02401AD4D030005F010F905042393B6C2B400012102A800F01AFE039902983C
:201A600001910090E969286804F052FF6A461178493141430C204843214604F05FFF9D4990
:201A800048439D4904F05AFF6A460221515EC9009CE0002102A800F0FBFD03990298019146
:201AA0000090296A686804F033FF04469548FF27FF26007841371936002804D004F01AFA58
:201AC000012817D01BE06A4610792D214930604348434B21C90104F031FF8449484384494E
:201AE00004F02CFF6A460621515E4018854901220A7027E06869B84201D9002007E004F0D7
:201B0000F9F9002807D16869B04204D2012004F001FA686916E004F0EDF901286A4616D0CA
:201B20001078493060430101081A4B21490104F005FF6E494843704904F000FF6A4602216E
:201B4000515E4018002800DA002068612EE610792D214930604348434B21C90104F0EEFEEB
:201B600062494843624904F0E9FE6A460621515EE7E7012102A800F08BFD03990298019149
:201B80000090E969A86804F0C3FE6A461179493141430C204843214604F0D0FE554948435D
:201BA000554904F0CBFE6A460621515EC90040180028CBDC0020F9E5E969E86804F0A8FE1A
:201BC00051494843514904F0B9FE51494018EDE5A969286904F09CFEE8E510B504F0A5F883
:201BE000642148434749FF22F5328A6048600146484804F0A3FE0446FF20F5307D21604330
:201C0000C90004F09BFE3E498A6B434B1A40E3055B0D1A438A638A6B404BC0051A40000BC6
:201C200002438A63886B3E4A1040886310BD70B5044604F075F8054604F06DF8041BAC426E
:201C400001DC2C4602E0844200DB0446A0B203F0FCFF642004F011F82146642041432948C7
:201C600041602C4804F06AFEFF210446F5314843490004F063FE224902468B6B26480340E0
:201C8000E005400D03438B638B6B24480340D005000B03438B63886B214A1040886370BD5F
:201CA000184880686430C2E7F8B5054604F042F88100471804F02FF80646642031464143B3
:201CC000144804F03BFE0446304603F0BEFFFF212046F5314843490004F030FE0646BD421E
:201CE00000DA3D46052128461CE0000098080000FD2F0000E8800000FF0F00001C0D00206C
:201D0000004000F0800C002074B90200102700005C95FFFF0048E80103F8FFFFFF07F0FF73
:201D2000FFFF0FE004F00AFEC0B203F0A6FFFF20F530411B204648437D21C90004F0FEFDC9
:201D4000EB498A6BEB4B1A40E3055B0D1A438A638A6BE94B1A40F3051B0B1A438A638A6B50
:201D6000E64BC0051A40C00802438A63F8BD70B5054603F0D0FF044603F0D2FF241A03F0F3
:201D8000D9FF8100DE4B411898682246FF324019F532904201DD104602E0884200DA084675
:201DA000FF21F5319860884203DB401AFFF73FFF70BDFFF779FF70BD10B50146D14804F0CE
:201DC000BDFDFF210446F5314843490004F0B6FDC74902468B6BC7480340E005400D034326
:201DE0008B63886BC44BD2051840120B1043886310BD70B50546C2484168C24804F09EFDE0
:201E000004467D216843C90004F098FDB84902468B6BB8480340E005400D03438B638B6BFF
:201E2000B5480340D005000B03438B6370BDB44840687047AE4940318A6AC00752085200F7
:201E4000C00F02438A62704770B5A94D01264035F6030446012805D1E86A3043E8620120A2
:201E600000F081FAA249886B42085200E007C00F02438A638A6B02239A43400002438A632C
:201E8000012C0BD1192000F0C6FA0120FFF7D2FF022000F068FAE86AB043E86270BD94485C
:201EA000816B490849008163816B02229143816370478F484030016A0122114301627047F6
:201EC0008B4A4032116A0C2380079943000F014311627047864940310A6AFF231B029A4361
:201EE000000202430A627047814A10B54032136A0F2424050007A343000A03431362106A71
:201F00000223C9079843890F0843106210BD784A4032116A1F231B06C0069943C00801430F
:201F200011627047012100B58B051846FFF730FB01211846FFF73EFB0121CB051846FFF79C
:201F400027FB01211846FFF735FB01206E490003086000BD66488030406AC0B270476448DC
:201F60008030406A0004000E704761488030406A0002000E70475E488030406A0001000F64
:201F800070475B4A8032D1680223C0079943800F0143D160704756498031CA68C0075208D4
:201FA0005200C00F0243CA607047514A10B5803213690124E403C007A343000C03431361CD
:201FC00010694904C00BC003490C0843106110BD10B5072304461B0601461846FFF7D8FA08
:201FE00021461846FFF7E6FA012047490003086010BD3F48016B820211430163016B0203BD
:2020000011430163016BC20211430163704730B5374B40335C6A0825C007AC43000F044390
:202020005C62586A5207C008C000520F10435862586A364A09051040090C0843586230BD2A
:2020400030B52B4B40335C6A0125ED04C007AC43000B04435C62586A072424045207A043BE
:20206000520B10435862586A0003000B09050843586230BD10B5012304460146DB0618466D
:20208000FFF786FA21461846FFF794FA10BD10B50123044601461B071846FFF779FA2146EA
:2020A0001846FFF787FA10BD114A4032916A0223C0079943800F0143916270470C49CA6BE7
:2020C000FF231B049A4300040243CA6370470849CA6B1202120A00060243CA637047044A82
:2020E000516B8023C0079943000E014351637047004000F003F8FFFFFF07F0FFFFFF0FE016
:20210000800C00200048E80100E100E00F00FFFF10B5334800218174C175017601218C055E
:202120002046FFF735FA01212046FFF743FA0121CC052046FFF72CFA01212046FFF73AFA32
:202140002849E012086010BD2548807C7047244900208874704730B5214B01229A740022E3
:20216000DA75197603E0845C9D18EC74521C8A42F9DB30BD70B51A4DA87C2C46133401281C
:2021800008D0022805D1E97D085D491CE975FFF7A1FE70BD01210220FFF7A6FE0020FFF723
:2021A0008FFE287E801EC0B2FFF7B1FEE97D085D491CE975FFF78EFE052000F0D4F8FFF750
:2021C00078FE0220A87470BD10B50020FFF778FE10BD10B50120FFF773FEFFF76AFE10BD88
:2021E000400D002000E100E05049087070474F480078704710B5FFF7BEFE002803D1FFF7BA
:20220000A9FE02F0F1FA10BD202801D2032017E0802806D22038C117090F08180011001D22
:202220000EE0E02806D28038C117490F0818C0100A3005E0E038C117890F0818801016305B
:202240003A490872704770B5FFF795FE002813D1364C264660680A3600280ED0217A491E12
:20226000884209D2FFF77BFE617A41406172616888556068401C606070BDFFF76BFE0546BA
:20228000FFF7C2FF02F0C6FF012803D1012D01D102F0C8FF607A684060726068855560685C
:2022A000401C6060A07A02F09FFA70BD70B5FFF762FE00281CD1FFF758FE1C4D29466A68AA
:2022C0000A3150546968491C69606A7A42406A720ED1287A81420BD1012405E02819807A79
:2022E00002F082FA641CE4B26868A042F6D870BD02F09FFF70BD10B500210846FFF755FE73
:202300000020FFF73EFE0020FFF762FE10BD10B50120FFF736FE0120FFF75AFE10BD034891
:202320000021416041720321017270475C0D002044480168491C01600120434940064860FB
:202340007047404800687047404800210161404A426181610321016170473C4800210161C1
:2023600041618161704737490A680B689B1A8342FBD9704737480268012109038A43026072
:202380007D221201C261344B4A101A6002680A43026070472B484168491C41602D48416A03
:2023A0000822114341622D4910020860704725484068704710B57D2104F0AAFA10BD0021A0
:2023C000425C202A07D00D2A05D0002A03D0491C89B28029F4D3491C88B2704770B50D4657
:2023E00006460023FFF7EBFF04B22846FFF7E7FF00B2844200DC04460020641E07E0315CDA
:202400002A5C914201D05B1C1BB2401C00B2A042F5DB184670BD002813D00E490A685208D5
:2024200052000A600A178A6000010A68C04301231A430A608A688242FCD8086840084000F2
:20244000086070478C0C002000ED00E000E000E0D514000000D000F000E100E080E200E06C
:2024600014480168102291430160704710B51148416A0222114341620F49100208600120A2
:2024800003F069FFFFF7ECFF10BD0A490A6810239A430A60094A5043C860094958010860D3
:2024A000704704480168C90603D40168102211430160704700D000F080E200E00024F400E9
:2024C00000E100E001201A494002C8611948016A0122120411430162016A090A0902763160
:2024E0000162016A52009143016213490220086070470F484030C169C16949084900C16111
:202500000B48C169012252021143C1610948016AD20111430162016A090A09027631016278
:20252000016A5200914301623821416370470000001000F0009000F000E100E039480068C9
:20254000C0B2704737498A699206FCD40860704700B5034602E05B1CFFF7F4FF1878002860
:20256000F9D100BD10B501222F48202303602F48C16B03242404A14354040919C163C16B2F
:202580000324A404A143D4040919C1632548816B19438163816B102319438163816B402422
:2025A00021438163416A090C090408314162816A090C09042C318162016B54022143016353
:2025C000016B140221430163C16A1943C162C16A60231943C162016B1143016310BD10B524
:2025E0000020134A202111600E4B40331A68920601D5586812E019680E4A4C06094903D4EA
:2026000010BD0868107001208C69E406F9D5002802D01078FFF796FF5868402108435860FE
:2026200010BD000000B000F000E100E0401000F080E200E0940C0020A34988707047A248A5
:202640008078704710B5642803DD084603F03BFE10BD104603F037FE9B490120887010BD0B
:2026600070B514460D46642804DC2046643000B203F082FC94488178012908D1FF210531D1
:202680008D4204DA00218170204603F075FC70BD7CB50C46054603F01EF88B490246C91CAC
:2026A000881C032A0FD0002C19D0012C33D000216846017041800171C1800822694628462A
:2026C00004F050F97CBD012C25D07F486A461C3001781170408850807B4818300CE07A4854
:2026E000807801280DD078486A461430017811704088508074481030017811714088D08087
:20270000DBE771486A460C3001781170408850806D480830F0E70A786B461A7001228A563C
:202720005A800178197101214156D980C5E7F8B56D4A66A1127869A0552A7DD16A4B6B4CC7
:202740002B3B002220CB20C4521CD2B20F2AF9D3654A2C3A1278664B1A70634A11321278D7
:20276000634B3D331A70604A123212785B1C1A70554A5D4B921C0F331B7813705A4B521CD8
:2027800011331B781370584B12331B785370564B921C13331B781370534B14331B785370BB
:2027A000514B133215331B7813704F4B183A16331B7813704C4B521C17331B781370531EB9
:2027C0005A781C78120222431C4618346280221D454C183424781470434C1C3A1934247880
:2027E0001470414C521C1A34247814705A781C78120222431C461C3462803C4A0832546AFB
:2028000025141C4610346580946A1E4614367480946A1F46241408377C80D46A3D1D6C80FA
:20282000D46A2402250E341F2570D46A240E3470146B3C70126B00E019E01204140E3A1DF5
:2028400014709A78FF2A12D100229A70341F628072807A80251F6A807F23237033703B70D8
:202860002B700D3C23706270A41C23706270224B204A5A601D4A883A00239C000D5D64188B
:20288000E67836063543A67864783604240226433543009520C25B1CDBB2032BEDD302CAB6
:2028A00000218B00C45C1B18DD782D062C439D785B782D041B021D432C43009410C2491C52
:2028C000C9B20229EDD3F8BD960C00204D61722032322032303139200000000031363A3199
:2028E000393A303400000000637F0000385100F037510000A3110410005000F0FB480021B2
:2029000001700177017641777047FEB500207D240546E4000646009002F0DDFE012701284B
:202920007DD002287BD0032879D0012003F050FB0820FEF793FE002002F05CFEFEF71DFFD7
:2029400040210843029002A8FEF713FF192149014810FEF7FDFD0520FEF707FE0020FEF789
:202960000DFE01218803FEF713FE01218803FEF721FEDF4938030860FFF7E3FC0746FFF7F5
:20298000E0FCC01B052803D8FEF7C2FD0028F6D0D649002048700120FEF793FDFEF7B8FD8F
:2029A000C008A84200D90546A04200D204460099761C08180090FFF7C4FCC01B0528EDD9E4
:2029C0003146009803F0A4FFC84E2A1B03217060042A03D9641F3C2C04D927E002464A3A5E
:2029E000682A02D20120307013E010281ED8707801281BD000203070B0760121880202F00F
:202A000044FE0121202002F040FE0121102003F0A7FBB848716803F07BFF80B200E007E0BC
:202A200003F01BF90020FEF74CFD24E03170F0E70020FEF73DFD0020FEF77CFD0021802017
:202A400002F035FE0021802002F01FFE0021102003F0F4FA002468460471447101A803F0B7
:202A6000D5FA0021102003F07BFB012003F0C4FA9E48877604709D480078FEBD10B502F0D5
:202A80002AFE032801D0002010BD0021102003F067FB012003F0B0FA012010BD08B50320F3
:202AA000694608701F20487001208870C8706846FEF7ECFD1F20FEF711FE0220FFF753FC71
:202AC0000220FEF75DFE08BDF8B502F004FE0026864D012818D0022816D0002813D1A87ED2
:202AE000012810D10121102003F03AFB012003F083FA032003F0E6F9032003F0EEF90120AE
:202B000003F09CFCAE76F8BDA87E0028FBD1FFF7C5FF04467D20000184420ED9012003F0D4
:202B2000D1F9012003F0D9F97D204001844201D3002000E0012003F081FC2E700098C008DE
:202B4000C00000906846FEF714FE0120A8760021102003F005FB012003F04EFAF8BD10B517
:202B6000002806D0644802F02BFE0120FFF7B7FA10BD0020FFF7B3FA604802F021FE10BDB2
:202B8000F8B55F4D286B800344D4FFF787FF0746286B64210002000F48430901441859482A
:202BA000844200D90446A8690001000F03F0D7FF064668690001000F03F0D1FF314603F0E8
:202BC00079FF0646384603F0BFFF0746204603F0C6FF314603F031FF394603F06BFF4A498E
:202BE000884200DD0846062103F0A2FF3F21090603F0CAFE454CA16B454A1140FF3101311C
:202C0000A16303F0CCFFC005A16B000B414A11400843A063E868E9680F2081430143E960CB
:202C200037484038C16B0122D2069143C163F8BDF8B502F050FD0027344E0546072801D0E9
:202C40000F2D18D129480124C07E00280AD12748C476FFF795FF0021102003F081FA012065
:202C600003F0CAF9214B26492B4A2C48DB7E0F2D02D0012B61D0A4E0012B2BD153689B070D
:202C80004ED40378002B0CD11D4B403BDB6B1B0506D5B36B2343B363B36B02252B43B36308
:202CA00004705268D20416D44278002A12D1144A403AD26B120506D4B26B2243B263B26BA5
:202CC00002231A43B263CA6860239A434032CA6044708770F8BD8278002AFBD1CA6860232A
:202CE0009A432032CA6084704770F8BD880D002000E100E000710200D45800007C15000075
:202D0000405100F01C0C000000004842004000F003F8FFFFFF07F0FF801000F0B60C002000
:202D200001780129E1D1B16B49084900B163B26B02218A43B2630770F8BDA44A52689207E5
:202D400033D50278002A0BD1A14AD26B120506D5B26B2243B263B26B02231A43B263047012
:202D60009A4A5268D20415D54278002A29D1984AD26B120506D4B26B2243B263B26B02232E
:202D80001A43B263CA6860239A434032CA604470877016E08278002A13D1CA6860239A4358
:202DA0002032CA60847047700BE00178012908D1B16B49084900B163B26B02218A43B26399
:202DC0000770002DB8D1834CE07E0128B4D10121102003F0C5F9012003F00EF9E776B06B55
:202DE00040084000B063B16B02208143B163F8BD784800787047774908707047754840682A
:202E00006338152801D8012070470020704771484068642801D301207047002070476D482D
:202E2000406801464B39172901D8012070476338152801D802207047002070476549487067
:202E40007047644902688A604268CA6082680A61C0684861704770B55E4D04462878012826
:202E60000ED002280CD002F036FC03281DD0002C26D0012C28D0022C11D0032C13D125E0C4
:202E8000002C04D0012C04D0022C14D103E0A86870BDE86870BD504928698842FADA022097
:202EA0000FE0686970BD002070BD002CEFD0012CEFD0022C02D0032CF5D1F2E7286970BD75
:202EC0000020FEF75DFC70BD0120FAE70320F8E74049097E014201D0012070470020704780
:202EE0003C4B01291A7E02D082431A7670470243FBE73849497E014201D001207047002030
:202F00007047344B01295A7E02D082435A7670470243FBE72F48007F70472E4908777047DA
:202F20002C490020887670472A490020C87670477CB5284D687F00281ED102F0BDFF012844
:202F40001AD101246C77204603F055FA002003F05CFA03F0C3F8019000206946C87101988D
:202F600003F0D2F8032069460870042048708C70CC706846FEF78AFB7CBDF8B5144917486C
:202F80000A6B6B461202D20E1A70114A403292685202520E5A704A6B1205120F9A70496B9D
:202FA0000F4E8902890ED97000246D46295D420110184018314603F0ABFC641C0846042C1A
:202FC000F4DB314603F0A4FC0846F8BD801000F0005100F0880D0020B80B00009FE735031E
:202FE000FFFFFF00F7B5FF4F06460120FEF776FBFEF776FA054684091F20FEF76FFBBD422D
:20300000F3D3FF2C00D3FF24F7481E21446001203070747001980160029807210160712054
:20302000FEBD70B50446022015460E46207002F010FC6070C820306000202860012070BDC9
:2030400030B5FF22FF23FF24FF25E1327D334B341935002815D0012824D0022833D00328EF
:2030600042D0042851D0052860D0FF24053406286DD0FF235F3307287AD0322979DA0020D2
:20308000B0E0914276DC994275DCA14274DCA94273DCE62972DCB42971DC822970DC5029EB
:2030A0006FDC9FE03229EADB914263DC994262DCA14261DCA94260DCE6295FDCB4297CDC35
:2030C000822976DC8EE03229D9DB64296DDB914250DC99424FDCA1427BDCA94275DCE62917
:2030E0006FDCB42969DC7DE03229C8DB64295CDB96295EDB914274DC994270DCA14268DCDB
:20310000A94262DCE6295CDC6CE03229B7DB64294BDB96294DDBB4294FDB914261DC99427A
:203120005DDCA14255DCA9424FDC5BE03229A6DB64293ADB96293CDBB4293EDBFA2940DB69
:2031400091424EDC99424ADCA14242DC4AE0322995DB642929DB96292BDBB4292DDBFA291D
:203160002FDBA14231DB91423BDC994237DC39E008E018E035E032E02BE026E021E01CE050
:2031800017E012E032298EDB64290EDB962910DBB42912DBFA2914DBA14216DB994218DBE4
:2031A00091421EDC1EE0642901DA01201AE0962901DA022016E0B42901DA032012E0FA291F
:2031C00001DA04200EE0A14201DA05200AE0994201DA062006E0FF20C330814201DA07209C
:2031E00000E008208049887630BD014600B5FF220020F5320B0003F039FD0906090C0F1236
:203200001214141408004B20000100BD1920400100BDAF20800000BD4B20C00000BD1046AE
:2032200000BD142000BD38B5044602F057FF00906846002201210078022C06D801280ED054
:203240006846C1704170017005E0002807D06846C170427002708270009802F055FF38BDC1
:2032600070B5624CFF23217801227D330225002905D0002601290ED0022912D01EE0014648
:20328000FF266F390E36B14213D9984201DD657011E0002010E09842F9DC322803DB0120A8
:2032A0000AE0322801DA6670F3E7FF211E31884201DA6270F3E7032002F09CF9607820706D
:2032C00070BD70B50546FFF7BAF9484CA178884204D00020E070FFF7B2F9A070FFF7AFF99E
:2032E000A178884202D1E078022803D2E1782069491C02E0284602212561E17070BDF3B55B
:2033000081B0064602F06CFA07B202F074FA05460A2103F0FDFA344942190C462034B242ED
:2033200002DAA278002A13D0281AB0420FDDA07801280CD120200D46085E02F01DFEA87F1F
:2033400002F0C1FF0020A0700120FFF775F9FEBD02980D46098C381A081AFF38F53800B23F
:2033600002F00AFE687F02F0AEFF0120A0700020EBE7F7B506461C480024C07E88B00F465F
:20338000782802D21849401CC8760020FEF756FB05460120FEF752FB01900220FEF74EFBB9
:2033A00002900320FEF74AFB0090FEF7CDFA019804900298059000980690039503A8FFF70F
:2033C00040FD0198FFF77DFF049001900299FFF796FFFEF7B6FF04498968411A0448814208
:2033E0000CD807E0B80B0000A80D0020BC0C002088130000FE48007900280CD0FEF7A1FF8F
:20340000FC498968411AFC48814266D9F848007900284BD05EE0F74CE07E08282DD021D9D3
:20342000F648854202DD207D022805D0F448854218DD207D022815D0207C032812D001209E
:20344000FEF778F80220FEF78EFF012002F018FE02F08CFF0820FEF786FFE5490120087153
:20346000E07E2077E648401B00B2C117C90E081844117F2C14DD7F24BFE06068A84201DD8A
:2034800001200BE07D204001854201DD022005E0DC48DD4928188842F2D900202075E1E7FA
:2034A0007F20C043844200DA0446A6E00120FEF741F80220FEF757FF012002F0E1FD02F05B
:2034C00055FF0820FEF74FFFC94901200871C948C17E0177C64901204871C5480199C079F0
:2034E000FFF7AEFDC249C871FFF79DFE0198FFF7B7FEC048C17E007F401D814205D9BD4849
:20350000062101747921017703E0BA48007C06285CD102F05CFB002811D0022002F0C8FA19
:2035200002F05EF904B2B248C079FFF75EFE009002F0DBFAB5498C4225DC052224E0012097
:2035400002F0B6FA02F057F900B2029002F0DAFA009002F0E4FA041E00DC052400990298C3
:20356000401880B2009002F0F7FA7D20C000281880B202F025F901990098401A214603F089
:20358000DDF904B219E00A229A490A7000996118081884B2204602F0C8FA0198322806DAC8
:2035A000601B00B2C117490E0818C41105E0601B00B2C117C90E08184411322C01DD3224F2
:2035C00004E03120C043844200DA04468848C07906280CD8A01E302801D8641E04E02046F3
:2035E0003230312802D2641C24B200E000248848854202DD002C00DD00247E48007C0628CF
:2036000002D07B490620887179480B21807903F07FF90A2919D0307851280ED00420FFF76F
:2036200057FC012813D00120FFF752FC012816D00220FFF74DFC012819D003256C49887966
:20364000421C8A710B281CD01EE00425F6E7052500210420FFF744FC002102200EE02825CB
:2036600000210120FFF73CFC0021062006E0022500212846FFF734FC0021032002F039F86A
:20368000DCE75B4900208871FFF744FC802101280AD0574842793720002A03D0052C01DA16
:2036A000621D01DC386000E039600A9900200860B07E022801D10120B0763078282804D035
:2036C000032805D0282803D009E070780C2803D04848007C032802D10120FDF7FFFF0320AF
:2036E0003070747028460BB0F0BDF7B588B00020FEF7A4F906460120FEF7A0F90546022072
:20370000FEF79CF904460320FEF798F90746FEF71BF902A80597029603950494FFF791FB46
:20372000344C2946A07EFFF78BFC1A202178205601AB6A4602F047F96846007803F00FFA06
:2037400007466846007903F00AFA05210690C943384603F0EDF97F21C90503F015F9074623
:203760002C49069803F069F92B4903F00DF90690207803F0F4F90790284603F0E5F9274D1C
:20378000294603F097F90446304603F0DDF9294603F090F9394603F050F9214603F04DF968
:2037A000069903F0F1F8072103F0C2F9079903F081F93F21090603F0E7F803F0D7F900B2F5
:2037C000FF2801DDFF2002E0002800DA0020089904220A700899487009987D2101600A98E5
:2037E0000021016002490120C86003207BE70000BC0C0020A80D0020881300006419000059
:203800004C1D000047F4FFFFE70300007C150000204E00008FC2753C3333F3BF00007A4445
:2038200070B50446052015460E46207002F00BF86070C820306000202860032070BD062357
:2038400003706423437032200860002010605120704707230370AA23437000200B60106031
:20386000184670470923037000234370AA2008601360704710B52023037043780024002BDD
:203880000CD0012B0CD0022B0DD0032B0DD04470AA2383700B601846146010BD012300E0AD
:2038A00002234370F4E70323FBE70423F9E722230370AA234370837000200B6010601846C2
:2038C000704718230370FF234370FC4B187C012805D0042803D0D87C022808D009E0987C83
:2038E000012802D00220187403E00520FBE70320D874462303200B60002111607047F7B5DA
:2039000082B004460F46684601F0B1FF68460078207068464078607068468078A070684637
:20392000C078E07068460079207168464079607146203860032663780121E0480025324626
:20394000092B38D008DC1F463B0003F08FF9073423343434341C34000C2B05D02BDD0D2B62
:2039600029D0182B27D124E0037C022B01D0062B06D105764576C57502748174C17E0177F8
:203980008020386017E0A0782C2814D10120FFF7C4FA10E0037C022B01D0062B0BD1C84B45
:2039A0001F7A002F02D02270657004E0C174197201E002F0DBFC04980560304605B0F0BDDF
:2039C00031230370AA238370C37046200860002010603120704710B5512303700A2343703B
:2039E00000238370C3708224047143714620086001201360FDF780FE012002F083FC032026
:203A000010BD54230370AA2343708370C37003714371462008600020106018467047552336
:203A20000370AA2343708370C3700371437146200860002010601846704770B515460E46FE
:203A40000446FFF79AFA71212170122161700021A1704222E27064222271020C6271020A7D
:203A6000A271E07121726172A172601D02F0C1F82079000601D5812000E0512041213160E7
:203A80000721296070BD81230370002343708370C370037143718371C371037243200860A5
:203AA000062013607047F0B5844D85B00520287000242C74EC746C74AC746C762C76EC7644
:203AC000EC756C752C752C77AC7602F046FA288402F0F5FB687702F010FC2E46A8772036B8
:203AE000B470687F02F0EFFB012002F0DBFB012002F0FAFB284648303471747104710146C2
:203B0000F4712039CC61447184718C760C62C471203004710020FFF700FA0F26012508270C
:203B20003046FDF732FD3046FDF741FD6549280308600121102001F0A8FD0121082001F0E0
:203B4000A4FD0121042001F0A0FD0121C80301F09CFD0121C80201F098FD0121084601F0A6
:203B600094FD0121480201F090FD0121080201F08CFDFDF702FEC008C000A904401C084354
:203B8000049004A8FDF7F5FD9020694608704D7006208870CF700F714D71CC716846FDF7F1
:203BA0001EFD0320694608721F2048728D72CD7202A8FDF76BFDC32001F0E0FC062001F09A
:203BC0000FFD01F094FE404801F01CFE012002F0A1F9C02002F0B9F9012001F00BFD032154
:203BE000072001F027FD0020FDF762FC01F0F8FD01F09BFF002001F0DEFF012001F0CFFFD8
:203C0000022001F055FF0020FEF716FD02F0FCFA6946CD73022048730D738C73039802F055
:203C200073FACBE6F8B5254F0546387C3C4648340026030003F01AF80604A6A634A69CA6A8
:203C40000220FEF790FB0120FDF7C0FC1B48C17D491CC175FEF775FB07460AE0FEF771FBB8
:203C6000C01B502805D3207D002807D0E07C01280CD0FEF766FBC01BC828EFD90F48C17D9E
:203C8000032940D346740121017467E0207A0228F4D1607A002801D00128EFD10748F1E7E1
:203CA0000220FEF760FB0120FDF790FC0348C17D491CC175FEF745FB074612E0A80D002084
:203CC000BC0C002000E100E0DC050000FEF739FBC01BA02805D3207D002807D0E07C012895
:203CE00015D0FEF72EFBC01BC828EFD9FE49C87D032808D3487C012836D0002834D08E747B
:203D000006200874CE750020FDF760FC3EE0207D022814D3207A022811D1607A012802D007
:203D2000002807D00BE0F04801214174017E491C017604E0EC484674417E491C4176EA4850
:203D4000017E022904D3042101740121417405E0417E022905D3042101744674C6751825FE
:203D6000D1E703210174C1E7042008741825C9E7797C0022022002F02CFA0620BE74387468
:203D8000032506E0FDF7B3FC1F2802D01F20FDF7A5FC2846F8BDF8B5D34F0646F87C0128AA
:203DA0000BD0022801D0032832D0FDF7A0FC1F2836D01F20FDF792FC32E00220FEF7D3FA6C
:203DC0000120FDF703FCFEF7BCFAC74C054648340DE0FEF7B6FA401B502808D3207D002845
:203DE0000AD0E07C012802D1207A012808D0FEF7A8FA401BC828ECD90020FDF7E7FBD8E79A
:203E0000607A7875A07AB8750220F8741826F3E7BA7D797D012002F0DCF90020F874032624
:203E20003046F8BD88B0FFF73EFEFEF78AFAAE498860FEF786FA0446FEF783FA001B02281F
:203E400005D8FF200130FDF769FC0128F4D11420FEF789FAA44E0124203635462835FEF708
:203E600070FAA2490020F470C2008A5CA24209D1C000401843689C4806AA03A928309847C9
:203E8000044603E0401C80B22028ECD3964928310878202801D201221AE0802807D20246A7
:203EA000203AD3171B0F9A181211921C10E0E02807D20246803AD3175B0F9A18D21008321C
:203EC00006E00246E03AD3179B0F9A1892101432D2B24A759446844A29328A64887500201B
:203EE00007E08A6C8B7D1778521C7B408B75401C8A648445F5DC7C482B30C71EB864002001
:203F0000F875394638762831F964E8742875FDF72CFC029038786946087278784872B878F7
:203F20008872B87DC87202A8FDF71BFCFDF725FC1F2149028843797DC906890C0843FF2133
:203F400001310843059005A8FDF713FCFEF7F9F90746FEF7F6F9C01BC82804D862482830DE
:203F6000007E0128F5D16049002028310876FEF7E8F907905C4828300078252833D010DC17
:203F800005281FD006DC022824D0032825D004283DD128E0152826D0162824D0172836D1F8
:203FA00021E036281FD006DC26281CD027281AD028282CD109E0372815D0462813D0472824
:203FC00025D110E00021022001E00021062001F090FB1CE000210320F9E72046FFF722FE78
:203FE000FFF7D9FE0446E879002805D03E482146283002F0A3FB0446FEF7A3F90399C01B25
:20400000884204D9FEF79DF9C01BC01D03900698FEF7A9F9002004901D20FDF75FFB3FE090
:20402000032C01D0042C3BD1FEF78BF90799401A192835D9FEF785F9C11B0398401F814276
:2040400006D801210802FDF7A3FAFDF7A9FC27E0FEF777F9C11B0398801E814220D8049854
:20406000002817D10220FDF739FB0020FDF7E6FC00900220FDF7E2FC0190B078012807D0B3
:204080001948019B827F417F0098C01AFEF7DAFA0120049001210802FDF77AFAFDF79BFC53
:2040A000FEF74FF90399C01B8842B9D9032C01D0042C18D1B078012815D00B4F387F002868
:2040C00011D0F97EC01C814202D8387C06280AD10120FDF7B3FC0146019B00982022BA5EB9
:2040E000C01AFEF7BDFA03E0A80D0020A46C00000120FEF7EDFE012807D128240021FEF70E
:20410000EFFE0021062001F0F4FA4848C168012906D10021C1602146454802F0E3FB044682
:20412000032C00D09BE64248817E0129FAD100218176AC7993E638B50446FDF716FB0090FF
:204140003B49E00701D001200876A0070FD5C87D6B46401CC875C007886C027801D05A709A
:2041600000E09A70401C88641846FDF7FAFA38BD1FB5044602A8FDF7D9FA0399019102987B
:204180002B49009060072031002840DA68460079274B002809D01D282CD0487D0A7D401C9E
:2041A000824268462AD1007829E068468278D86C0270D86C401CD864202A01D2012217E0A0
:2041C000802A06D2203AD017000F80180211921C0EE0E02A06D2803AD017400F8018C2108A
:2041E000083205E0E03AD017800F8018821014324A7509E068468078487405E04078DA6CB3
:204200001070D86C401CD864087D401C0875200708D56846C078002805D000228A748875E0
:204220000120C8741FBD0122F8E70000BC0C0020D00D002070B50646FF480D4607210368C0
:2042400049068B43012109060B4314460360FDF790FA002030742060F8482860022070BD2C
:2042600070B5F54B0D4606460721186849068843032149064018186014461846FDF779FA16
:204280000020307420607D2000012860042070BDFF23EB4A7D33002808D0012812D0FF232F
:2042A0001E33022817D05F290EDB1BE0914201DD03207047994201DD02207047BE29FCDD53
:2042C000012070475F2901DA002070479142EFDC9942F1DC70475F29F6DB9942F0DB9142FD
:2042E000E6DC70479942EBDBFF20C3308142E3DBDEE7F8B50027012604460D46002804D0B8
:20430000012C08D0022C17D01FE0BE2D01DD012424E0002017E0FF207D30854201DD0224E4
:2043200010E05F2904DA0024204601F063F90EE0032001F05FF911E0FF201E30854201DAF6
:20434000012402E0032001F055F95F2D06DA6946CE708F70032048700E7005E06946CE7071
:204360008F70032048700F70009801F0CDFE2046F8BDF7B5B04F82B0083FB8790D460028A5
:204380000AD10120FDF7D6F80220FDF7ECFF012001F076FE0120B8710020FDF7F1F9044646
:2043A0000120FDF7EDF90090FDF7CBFF3969A24E411A7D200001814203D2A248201804B2B9
:2043C00033E038780099FFF763FF387003283CD00020FEF731F93878002838D0012839D0F9
:2043E00002283AD02821019178780099FFF781FF7870CF2001F0C2F8072001F0F1F8072104
:20440000306849058843052149054018306001F06CFB009001F0E4F901994118009808182E
:20442000211A0CB280B201F080FB20463B30772800D2002420464A30952810D2B8780528A3
:204440000DD2401CB87000240BE00120C1E74B210901C8E7AF218900C5E78021C3E700208C
:20446000B8703846FA787D230727DB007F061E2A02D20179322902D30121417130E0002C20
:2044800013DA71498C4201DC2B6009E06C4963316118F92902D8FF21F53100E0FA212960CE
:2044A000521CC2703068B84329E0002C18DD644A6432944202DB7D22920108E0FF3CF53C22
:2044C000FA2C02D27D22520101E07D221201491C2A60017130680121B843490640180EE0B2
:2044E00000212B60C17001714279012A02D1574A2A60417131680320B94340060818306029
:204500004D48FDF736F90220FEF7E2FC002801D0052500E003254E4C0020A0710121202096
:20452000FDF736F801212020FDF744F8A0790028FCD030680321B8434906401830603E4846
:20454000FDF717F904990020086002990874284605B0F0BD00230370AA234370102383700F
:20456000B423C370992303714C23437128238371FF23C371DD23037244234372F3238372AD
:204580000B230374142010602C4808600320704770B50646284814460D46072201685206A4
:2045A00091430322920689180160FDF7E2F800233374236005202B6070BDF0B51921490147
:2045C00085B04810FCF7C4FF0520FCF7CEFF0020FCF7D4FF902480252046FCF7D6FF2046E0
:2045E000FCF7E5FF01241B4920030860FDF7C2FEFDF7C3F81049E20408398860C008C0007D
:20460000801C1043072252050831104308600846FDF7AFF80327684607731F214173847311
:20462000C47303A8FDF732F8304628434E210843204300F0A3FF0FE0D80C00203075000052
:204640008A020000D8DCFFFF12FDFFFF50C30000400E002000E100E0072000F0C1FF0420D2
:2046600001F01EFD042001F024FD012001F03CFE002668460096067145718571C57101F0F8
:20468000DFF9012001F046FC0020FDF7D5FF032000F0B0FF0321072000F0CCFF0020FCF72B
:2046A00007FF6846C472867247720472029801F02BFD01F095F801F038FA49E71CB5FDF7A0
:2046C0005CF8454CA060FDF750F8E060FFF775FFFDF737FE0125414E2061FDF768FE04460C
:2046E0003F480021CA00825CAA4208D1C9000818436801AA694639489847054603E0491CC4
:2047000089B20529EED3307C00282CD03348801CB06200207074B07431782F480C30417041
:2047200071788170FDF71DF8307C2B4A010708321068000100090843072149068843012102
:204740008906401810601046FDF713F8FDF7F9FD0746FDF7F6FDC01BC82802D8B07C012895
:20476000F7D10020B0740198FDF7FDFDFDF71FFE071B0098FDF71EFE8742F7D9ADE770B579
:204780000446C1060120154D002900DAA874A1060AD512492031887100212020FCF70AFFDE
:2047A00001212020FCF7F4FE200613D5687C401C6874687C0B49C007A86A04D0421CAA6239
:2047C0000078487003E0421CAA62007888700548FCF7C7FF70BD0000D00C0020200E00206F
:2047E000A46D0000DC0C002030B5F94A002351780224142902D3537093702FE0F44DED1C35
:2048000048555078401CC1B2517001291DD1D078202801D2032017E0802806D22038C5175A
:204820002D0F28180011001D0EE0E02806D28038C5176D0F2818C0100A3005E0E038C517CD
:20484000AD0F28188010163090701078002807D0012804D19078814201D15370147030BD30
:204860000120107030BDDA4800787047D84880787047D748C0787047D548C01C704770B5A7
:204880000446FDF75EFDD2497839C865D048617858380172FDF7E4FDCD4C0025183CE079D2
:2048A000012811D00020FDF7C5FA20462038057465702570A570E570257465746572202087
:2048C00001F01FFA022070BD2572012060720020FDF7BAFA002070BD70B50446FDF731FD4F
:2048E000BB4D783D6865294660782031487200F0B5FF2C46A86C6034002805D12078401C2C
:20490000C0B2207001F0DBF9207C012801D0032070BD012001F0F6FC0020FDF795FA002023
:2049200070BDAB487838806CC0B2704738B50446FDF707FDA64A783A5065916C0A2901D209
:20494000491C91646078A24C583CA072906C01280DD1204640300178032912D30021017498
:20496000684601F0A2F903216846FDF7F4FBFDF701FC0A20205600F0EDFC01280ED00320B4
:2049800038BD0121017400F0D7FDFF2000F0F6FD00223C218F4801F038FAEAE7002038BD66
:2049A000F8B58B4C0746183C207C002849D101F07BFA2546603D0126B8421EDC607B012867
:2049C0000FD06673FDF7BDFC2862A07B002810D0FDF7B7FC696A411A7F48814224D8A67351
:2049E0002FE0FDF7AEFC296A401A7C4988421BD8EBE7FDF7A6FC6862F1E701F059FA014606
:204A00003846002781421ADCA07B012805D0A673FDF797FC6862677313E0FDF792FC696A93
:204A2000411A6D488142F6D9E672012001F074FC012001F0E1FAFDF732FA0120F8BD67733D
:204A4000A7730020F8BDF0B5614D87B04078583D0027E872FDF775FC2946203948650C46E3
:204A600001206034E0700520FDF77DFCFDF769FC064601E0FCF7BEFFFDF763FC801B032850
:204A8000F8D30120FCF7DAFF04900020FCF7D6FF06900220FCF7D2FF06460320FCF7CEFF37
:204AA0000590FCF751FF06980090049801900598039002966846FEF7C4F90498FFF770FF9A
:204AC00001280AD00499304648437D21C90001F035FF217C012903D00DE0002007B0F0BD9E
:204AE0003F498E4207DDE97AEA7B51437D22D2005143090A471A7D20000187420FDDE07BF7
:204B0000401CC0B2E07303280BD30120E07201F003FC012001F070FAFDF7C1F9DDE70020FA
:204B2000E0730320DAE710B52949427858390A734178642903D18278052001F04AFB0320AD
:204B400010BD2349407858394873052801D3CD2801D9002070470220704710B50446FDF795
:204B6000F0FB1B497839486540310A7C1848521C0A7400211838017061780022182001F03F
:204B800028FB032010BD70B586B00446FDF7D9FB0F490F4D7839486560780221183D01280A
:204BA0000AD00122182825D0002619282CD00E2839D00C283ED054E0A078002851D1687869
:204BC000401CC0B2687001280CD9697049E00000C80E00204C040000C0D40100B80B000081
:204BE0007017000004A801F060F8032104A8FDF7B2FA36E0A078012833D1EA7101F0FCF92D
:204C00000020FDF721F90BE0A078FF2829D10020FDF71AF92E73A2786178282001F0D9FA7B
:204C2000002006B070BDA07855281AD0702818D16A7416E0A078002813D16A46117256727E
:204C400002A800F029FE684600F011FE6A46107851784840907003216846FDF77CFAFDF72D
:204C600089FAA2786178282001F0B3FA0320D8E710B541788A09FA498A7342789206920EB3
:204C8000CA738278D2090A7482785207520F4A740279D2088A7400794007400FC874012053
:204CA00001F030FB032010BD10B541780A09EC490A7542781207120F4A7581780A02E849BA
:204CC0002039CA86C378D218CA86027912068A6343791B04D2188A6383791B02D2188A6394
:204CE000C379D2188A6301F0BBF8022010BD70B5417800220B06DA4920394B640A64847868
:204D0000250494186B410C644B64C5782D02A4186B410C644B640579A4186B410C644B64FB
:204D20004679350A3606A4196B410C644B648679350C3604A4196B410C644B64C679350E2D
:204D40003602A4196B410C644B64007A201853414B640864022070BDC14910B540318872A9
:204D6000012801D101F0EDFA10BDFEB5BC480025203805702030044645724034E571257238
:204D80000320694608700F20487001208870C8706846FCF77BFC012001F0BCF80020FDF79F
:204DA0004BFC012001F07EFA012001F054FAAD48C16B032212029143C163C16B012292028D
:204DC0001143C163C16B5600B143C163C26B71008A43C263C26B49008A43C263C16BF200AB
:204DE0009143C163C16B5700B943C16301F076F969460190CD71019801F086F9072069465B
:204E00000872487202A801F001F9FDF748F84B21E120C900800001F03BF8257400F08CFBAB
:204E2000CF2000F0ABFB904800F0B1FC00223C218E4800F0EAFF0020FCF73AFB022001F0EF
:204E4000F6F9012001F011FA072001F018FA012001F0F7F98448323800F04BFF202000F07A
:204E600050FF8148323800F034FF80481E3000F038FF0F2001F0B6FA7221012000F007FFD6
:204E8000552000F0B4FF0121384600F0FEFB0121022000F0FAFB0121080300F0F6FB012118
:204EA000202000F0F2FB0121304600F0EEFB0121480300F0EAFBFDF72BF9002001F02AF8D7
:204EC0000120FDF7D7F801220D21C9011046FDF79EF80120FCF7AEFF0020FFF73DFF257348
:204EE000FDF709FAFDF713FA6573A573E572B420FDF7CBFAFDF7D5FA6420FDF734FAFEBDC2
:204F000057484030807A7047F8B500F0F0F9544E0127203EB770FCF760FE0020FCF794FF05
:204F200034466034E0790025012806D0FDF7B9FA002000F0EFFFA3200EE0207A401CC0B228
:204F40002072022804D9E5712572012001F054F800F056FF40002138FDF705FA6573A573AC
:204F6000A07A002809D1E07A002806D13C48407A032802D00120FCF767FFFCF7E5FC002013
:204F800000F0ACF97570B7703548B564E573583045700570FDF7D5F97060002000F08FFEA1
:204FA0000120F8BDF8B52E4D0027203D68782E462C467836603401282BD0FDF7C2F96968C3
:204FC000401A502802D9E07900280BD0307800280AD0FDF7B6F9E860FDF7B3F9A86001206A
:204FE000687026E06F7012E0E079012802D1607A012820D0FDF7A5F96968401A202818D9C4
:20500000E079012815D16F700020FCF71DFF0020F8BDE079012802D1607A01280BD0FDF71E
:2050200090F9A968401A1428DCD831783046022904D00120F8BD27726772E5E76F70077004
:20504000C37800240A4A2146CE00965D9E4211D1C90089184968C01C884704460EE00000B5
:20506000700E0020005100F0DC0500004C040000CC6D0000491C89B20B29E5D3FDF761F90D
:2050800068612046F8BDF8B5904C002660782546783501281FD0A078012814D0FDF751F912
:2050A0006169401A64281ED82878002821D0FDF748F9A061FDF745F9E061FDF742F9206138
:2050C000012060701AE0FDF73CF9E168401AC82809D8A670E8E7FDF734F92169401AFF213E
:2050E000F531884202D966700020F8BD2878022806D0FDF726F9606500F013F90220F8BDEF
:2051000066702E70EB780020714A0146CF00D75D9F4205D1E81CC90089184968884703E00B
:20512000491C89B20B29F1D36670F8BDF8B5674F6037F879012850D0644D002468782E466F
:205140007836012834D0FDF7FCF8A969411AE120C000814207D96C70012001F0D3F80020E2
:20516000FCF772FE39E0F87801280FD0FDF7E9F8E969401A574988422ED83078002831D079
:20518000F07803280AD004280CD00EE0FDF7D9F8E969411A50488142DDD8EEE7FDF7D1F898
:2051A000A86102E0FDF7CDF8E8610120687019E0F078032802D0042807D010E0FDF7C1F80B
:2051C000A969411AE120C00004E0FDF7BAF8E969411A4148814202D96C700020F8BD3078EA
:2051E000022801D00320F8BD6C703470F3780020374A0146CF00D75D9F4205D1F01CC9007A
:2052000089184968884703E0491C89B20B29F1D36C70F8BD2D486030C07970472B49603167
:20522000C87170472949603148727047274800787047264900204870783148700870704795
:2052400022486030C07A704720486030407C70471CB5FFF78AFD1D4C2078012806D0022880
:205260000DD003280ED0FFF74FFE01E0FFF79AFE20700120FDF72CFE012806D016E0FFF7DC
:2052800002FFF5E7FFF752FFF2E700210120FDF727FE684600F0EBFA6946087849784840BB
:2052A0006946887003216846FCF755FF00F013FA0028D1D10121102000F052FF012000F0C3
:2052C0009BFE00F008FA0328FBD1C5E7500E0020CC6D000010270000AC0D000093490870A5
:2052E0004870704791484038008B00B270478F490020403988620863C8610862FF234862D5
:20530000F5334B610122CA62C860FF23C33308608B618860203108752031C8708A70087124
:2053200070478249FF20F5304039C8637F4801212038017570477D4910B5024640390868D9
:205340004A6003465043C417640E2018C4111819C86310BDF1B588B0002668460670FFF726
:20536000E0FA002804D0FCF7EFFE002802D0002009B0F0BD0820FCF7F6FFFCF7E2FF6C4D5A
:20538000286001E0FCF736FBFCF7DBFF2968401A0328F7D30120FCF751FB64490446403903
:2053A00008600020FCF74AFB07900220FCF746FB07460320FCF742FB0090FCF7C5FA0798BF
:2053C00003A991C10098069003A8FDF73AFD5948874226DDFFF738FF012867D05348012213
:2053E000017902230327002906D0012913D0022941D003294BD014E0FF2141318C424CDADB
:20540000FF2173318C4201DB03714DE0FF21A5318C423ADA02E0F02C24DC0671462000F0DA
:2054200070FC2046FFF7BCFA0128A1D00898FFF782FF01A800F005FD694688888979484356
:20544000642101F065FA064600F0A8F9374C00B2403C2168814203DA68468088884227DC3D
:20546000401A2CE0FF2173318C42CDDAFF21A5318C420ADA12E0F02CCFDDFF2123318C42E9
:205480000BDDFF21A5318C420EDB07710CE0F02CC3DDFF2123318C4202DC02714120BEE7BE
:2054A000FF2155318C42AFDD2020B8E72820B6E7E06BB142D4DB401AC10F081840106168D8
:2054C000002900D1002081004018C0100090FCF74EFC0520FCF747FFFCF733FF286001E050
:2054E000FCF788FAFCF72DFF2968401A0428F7D30120FCF7A3FA064620600020FCF79EFA0F
:2055000007460220FCF79AFA04460320FCF796FA0546FCF719FA03A8039704960695059441
:20552000FDF78FFCFCF710FA21E70000200F0020E40C002070170000FE48816A4908490036
:205540008162816A022291438162816A042291438162816A082291438162816A102291431D
:205560008162816A202291438162816A402291438162816A8022914381627047ED49C20766
:2055800003D08A6A01231A438A62820703D58A6A02231A438A62420703D58A6A04231A437B
:2055A0008A62020703D58A6A08231A438A62C20603D58A6A10231A438A62820603D58A6A52
:2055C00020231A438A62420603D58A6A40231A438A62C00903D0886A80221043886270475B
:2055E000D44A916A07231B0440079943400B014391627047CF4AD16AC02380079943000E45
:205600000143D162704770B5CB4B81071A780025C84CC026090E904205D05A78042A02D256
:20562000521C5A7070BDE26AB2430A43E2625D70187070BD10B5BF4AD36A06248907A34306
:20564000490F0B43D362D16A182380079943C00E0143D16210BD10B5B64A536A0324640671
:205660008907A34349090B435362516AA30080079943C0080143516210BDAE494A6A520015
:205680005208C00702434A62704708B5A94B403B5A6A0092012902D0002902D004E002439F
:2056A00000E08243684602800098586208BD08B5A04B403B5A6A0092012902D0002903D08D
:2056C00006E0110C014301E0110C8143684641800098586208BD9748806A0004000E7047A9
:2056E00094498A6AFF231B029A43000202438A62704710B5CA078F4CD20F030001F0B6FADD
:205700000805300B11171D232937E068012149058843510529E0E06801210905884311053E
:2057200023E0E0680121C9048843D1041DE0E068012189048843910417E0E068012149048D
:205740008843510411E0E06801210904884311040BE0E068012252069043C907890904E01A
:20576000E0680121C9058843D1050843E06010BD70494039CA6B120C12040243CA63704734
:205780006C490A68120C120402430A60704769490A68000492B202430A6070476548006861
:2057A000000C704763494A68120C120402434A60704760494A68000492B202434A607047A5
:2057C0005E4A10B51421801801F0B8F88005810958484038C26B5A4B1A401143C16310BD56
:2057E00054484038C06B14218001800D484353494942401870474F48C0683221C0B2484357
:205800003230704710B53221323801F097F8C1B24848C268120A12021143C16010BD454940
:2058200040398A6AD200D208400702438A627047404A403A916A0F231B06000799430009E2
:205840000143916270473B484038806B0002000E704738484038806B000E7047354940390E
:205860008A6B1202120A000602438A63704731490A6902700A691204120E42700A691202D3
:20588000120E82700A69120EC2704A69027149690904090E4171704710B526490A690378AA
:2058A000120A12021A430A610A69FF231B0244789A43240222430A610A691C02A24384783D
:2058C000240422430A610A69C4781202120A240622430A614A690479120A120222434A6187
:2058E0004A6940799A43000202434A6110BD70B51048016B090A090223310163036BFF2153
:20590000090249228B4352029B180363046B0B0223259C432D0464190463046B25022D0A51
:2059200014042D190563456B2D0A2D0223354563456B07E0405000F0E80C002018F7FFFF53
:20594000FFFF00FC8D43AD184563456B13269D433604AD194563456B2D022D0A2D1945639B
:20596000856B2D0A2D0213358563856B8D43AD188563856B01269D433605AD198563856B64
:205980002D022D0A2D198563C56B2D0A2D021035C563C56B8D43AD18C563C56B9D4303234D
:2059A0009B04EB18C363C36B1B021B0A1B19C363FD4803681B0A1B022033036003688B4374
:2059C0009918016070BD10B5F74C1946403C030001F04CF909060A10151B1F25293106006F
:2059E000206B1070206B08E0206B0002000E1070206B1DE0606B1070606B000418E0606BA9
:205A00000002000E1070606B12E0A06B1070A06BF3E7A06B0002000E1070A06B08E0E06BF0
:205A20001070E06BE9E7E06B0002000E1070E06B000E087010BDDC48036813700068DCE715
:205A400030B5D9494A680378120A12021A434A604A68FF2424024378A2431B021A434A601C
:205A60004B682202857893432D042B434B604B68C5781B021B0A2D062B434B608B68057943
:205A80001B0A1B022B438B608B68A3434479240223438B608B6893438279120413438B6043
:205AA0008A68C0791202120A000602438A6030BDBD49012302228039002806D0012807D064
:205AC0000228886A0AD0984304E0886A184307E0886A18438862886A904304E04008400075
:205AE0008862886A104388627047AF4810B58038806BAE49001240B24843AD4900F01EFFEE
:205B000000B210BDA84810B54038C068A749001240B24843A64900F011FF00B210BDA248DA
:205B2000C068C0B281004018704710B5322100F0EFFE0006010A9C488038026BFF231B04EB
:205B40009A431143016310BD97488038006B32210002000E4843704710B5322100F0D8FE5E
:205B6000C1B291488038026B120A12021143016310BD8D488038006B3221C0B24843704700
:205B800089488038006B3221000E4843704786488038006B32210004000E4843704782490B
:205BA0000122403952040028C86A02D01043C86270479043FBE77C4901224039120400283F
:205BC000C86A02D01043C86270479043FBE776484038C06A800301D4002070470120704771
:205BE00071484038C06AC00301D400207047012070476D4910B580390A690378120A1202B1
:205C00001A430A610A69FF231B0244789A43240222430A610A691C02A2438478240422437C
:205C20000A610A69C4781202120A240622430A614A690479120A120222434A614A69407944
:205C40009A43000202434A6110BD574940398A68120C120402438A607047534940398A687C
:205C6000000492B202438A6070474F494031CA6A120C12040243CA6270474B4940314A6AA4
:205C8000FF231B049A43000402434A627047464AD3691B0A1B020343D361D069FF231B023A
:205CA000984309020843D06170473F4AD1690170D2691204120E42705140817070473A49B8
:205CC0004039CA6AFF231B029A4300020243CA627047354940390A6A120C120402430A6281
:205CE0007047314940390A6A000492B202430A6270472D4940394A6A120C120402434A620E
:205D00007047294940394A6AFF231B049A43000402434A62704724484038006A80B270472C
:205D200021484038006A000C70471F484038406A80B270471C484038406A0002000E704796
:205D400010B5194AD3690324A4058007A343000A0343D361D069A31089079843890A0843E9
:205D6000D06110BD10B5104AD3690324A4048007A343000B0343D361D069A31089079843B2
:205D8000890B0843D06110BD074AD3699B009B0880070343D361D06903231B07890798436E
:205DA00089080843D0617047805000F008520000FF0F00004E48C0690002800FF3E74C4839
:205DC000C0698002800FEEE74948C0690003800FE9E74748C0698003800FE4E74448C0694E
:205DE000800FE0E74248C0698000800FDBE740494031CA681202120A00060243CA60D2E73F
:205E00003B484030C068000ECDE730B5384B803B5C6B240C240404435C635C6BFF252D0441
:205E2000AC4309040C435C63596B0902090A000601435963986B000A0002110A0843986300
:205E400030BD2B4980394A6B02804A6B1202120E82708A6B496B1202090E51188180A2E74F
:205E6000234940310A6BFF231B049A4303791B041A430A630A6B43791202120A1B061A436E
:205E80000A634A6B8079120A120202434A638AE7174A53691B0C1B04034353615069090431
:205EA00080B2084350617EE71148406980B27AE70F484069000C76E70D484038C068C0019B
:205EC000C00F70E70A4A403A516A0323DB0680079943C0080143516265E7054A403A516A1A
:205EE00003235B06800799434009014351625AE7805000F010B5FFF7EEFBF7490328886977
:205F000004D00005002803DA012010BDC004F9E7002010BD10B50446FFF7DDFBEE490328E5
:205F200007D00120C0028A69012C0CD082438A6110BD012212038869012C02D0904388614A
:205F400010BD1043FBE70243F1E7E34A9169E34BC0031940014391617047DF49C869C96939
:205F60004006400E090602D41421484370471321C943484300B2704710B5D94A8021D64C52
:205F8000904201DD104607E0D54A5242904201DA104605E0002803DBE2698A43E26104E034
:205FA000E2690A43E261404200B2142100F0C6FC4006E169400EC909C9010843E06110BD18
:205FC000C5494A6A80B2120C120402434A627047C14A116801239B06C00799434009014378
:205FE00011607047BC4A403A51680423C0079943400F014351607047B74940390A68C007C9
:2060000052085200C00F02430A607047B249CA6807231B069A4343785B075B091A43CA6042
:20602000CA6807230078DB0640079A4380080243CA607047A849403948617047A64A403AA5
:20604000012905D0002902D1516981435161704751690143FAE7A0494039886170479E4A95
:20606000403A012905D0002902D1916981439161704791690143FAE79748403800697047AE
:20608000954940394A68C00752085200C00F02434A607047904840384068C007C00F7047CA
:2060A0008D4940390A6B12011209000702430A637047894A403A116B07235B064007994307
:2060C0000009014311637047834A403AD16BF02300079943000E0143D16370477E4808B50F
:2060E0004038C16B6A460902C90FD170C16B4902C90F9170C16B8902090F5170C06BC0035A
:20610000C00F1070009808BD01B573484038C16B0122D20591436A46D278D207120A1143AD
:20612000C163C16B0122920591436A469278D207520A1143C163C16B0F22920491436A46A3
:2061400052781207920A1143C163C16B0122120491436A461278D207D20B1143C16308BDE2
:206160005D4AC907403AC90F10280DD0202811D0402815D0802806D1D06B0123DB03984334
:20618000C9030843D0637047D06B01231B0398430903F6E7D06B01235B0398434903F0E702
:2061A000D06B01239B0398438903EAE74A4A51680123DB03C0079943000C01435160704700
:2061C000454A11690223C0079943800F01431161704710B5434B9C69240A240204439C6102
:2061E0009869FF242402A0430902084398619869210288431104084398613748403801687B
:2062000008221143016010BD3349C86A0001000FC01C0F2800D30F20CA6A120F1201024352
:20622000C86A0002000A12061043C86270472A4A11680323DB0680079943C0080143116000
:206240007047254A916801231B06C0079943C009014391607047204A403A51680223C007F9
:206260009943800F0143516070471B4A916803239B06800799430009014391607047164A2A
:20628000916807231B07400799434008014391607047114A11694023C0079943400E0143F5
:2062A00011617047012808D001200B4AD1691306994380070143D16170470020F5E7064811
:2062C000006AC0B2704704494A69FF231B049A43000402434A617047405100F0FF7F00FF64
:2062E000EC090000405000F0684A91690823C0079943000F01439161EDE76448006A00047C
:20630000000EE8E7614A403A11682023C0079943800E01431160DEE75C4A403A1168102348
:20632000C0079943C00E01431160D4E7574A403A116801235B02C0079943800D0143116082
:20634000C9E7524A403A11680223C0079943800F01431160BFE74D4A403A1168FF2301336C
:20636000C0079943C00D01431160B4E770B5474C206801256D032843206020686E10B043A3
:2063800020600A20FCF747F82068284320602068304320600A20FCF73EF82068284320606D
:2063A0002068B04320600A20FCF735F82068A84320602068B04320600A20FCF72CF82068E1
:2063C000A84320602068304320600A20FCF723F82068A84320602068B04320600A20FCF794
:2063E0001AF870BD2949CA68000712091201000F0243CA606FE7254A116B01239B04C0073C
:206400009943400B0143116365E7204A11688023C0079943000E014311605CE71B4A403A43
:20642000D16B0123DB06C007994300090143D16351E71648006B4003C00F4CE7134A116BD8
:2064400001239B04C0079943400B0143116342E70E4A116B0F231B0500079943000A014353
:20646000116338E7094A51690F231B06000799430009014351612EE7044A91690F231B0697
:206480000007994300090143916124E7405100F0F0B5830001208002834212DAFE4C2268FE
:2064A00082420ED2002001256D071A180E5C57193E712668B24201D30120F0BD401C042817
:2064C000F3DD0020F0BD012149074018007970470121490708784978000208434005EF49A8
:2064E000400DC8617047372821D010DC25281ED006DC15281BD0162819D0172815D116E0AC
:20650000262814D0272812D036280ED10FE057280DD006DC46280AD0472808D0562804D1CC
:2065200005E0662803D0672801D00020704701207047022801D0052801D0002070470846E8
:206540007047F0B5044685B000260220FBF70BFF0120FBF73BF8FBF7F4FEFF277D370546CD
:2065600020340AE0FBF7EDFE401BA02805D3207D002807D0E07C01280DD0FBF7E2FE401BDA
:20658000B842EFD90020FBF721F81F20FBF7A6F8304605B0F0BD217D012907D0207A020923
:2065A000521C9142EED325280BD01AE06846FBF7BDF800980199029003916846807A607290
:2065C0000FE0B548016800290BD1A17A0160002141600120627A40070270A27A42708170AE
:2065E000C1700126CEE710B52030837A807D800701D5052010BD0022A948002B10D0017998
:206600000029F6D1022101714271002009079B0002E044182271401C8342FADC022010BDC0
:2066200002714271042010BD014610B59C4802240279022A07D140792931FFF729FF012854
:2066400001D195494860204610BD70B502460646156A20367079AB00D469022915D000231D
:2066600003290AD0042941D005290DD146283AD0472809D16D1E156210E013627371B3719A
:20668000252093760121517670BD252806D0462806D04728F8D1191DA14215D8462070BD5E
:2066A000191DA14201D8472070BD591CA14201D1172070BD991CA14201D1272070BDDB1CF1
:2066C000A342FBD1372070BD591CA14201D1162070BD991CA14201D1262070BDDB1CA3423F
:2066E000FBD1362070BD6D1E1562DCE71362D3615376252070BD10B5014620310C46C269C8
:20670000497A002A01D002238376002909D0332912D0FF2905D00521FFF797FFA07103207A
:2067200010BD016A8900914204D35D4900220A710421F1E70221EFE70121EDE7F8B50646C6
:2067400004270091FFF7FDFE002860D034462034207A534D252804D046282CD047282AD038
:2067600031E0607AC00805282DD2002804D002281CD001281AD03AE0474A5068012836D182
:20678000002046492871687120310871434BE871D861487188719876186240331871CB7974
:2067A0005B1CCB7110600220506020E03046FFF71AFF07461BE03046FFF736FF0746687948
:2067C000401C687113E0207D012810D1607AFF2804D000280BD0332805D008E03046FFF78E
:2067E0008AFF009013E00220442188550327FF20022F07D0032F04D0042F03D0052F02D1C5
:2068000007E0332020710220B0761520A0710098F8BD0020F6E730B51523037024231B5C87
:2068200043701D4800244368022B05D144601D48036840252B430360642008600320146041
:2068400030BD10B525230370447EE4004470047F847064240C60002120301160437103204D
:2068600010BD70B50E4B0125DB780370046A6D07A3005E19367946705E1C761936798670D2
:206880009E1C76193679641CC670DB1C5B1904621B790371642307E0EC0C0020D00D0020EE
:2068A000C80D0020005100F00B6000211160017820304171032070BD00B50346134A084631
:2068C000117900290DD101202721C8540021517110710320D071FFF7FBFD03211846FFF774
:2068E000B4FE00BD70B505460C460820FCF7F0FA012808D100210820FCF7F2FA2146284663
:20690000FFF7DAFF0446204670BD0000C80D002030B50B46014600202022012409E00D4696
:20692000D5409D4205D31D469540491B2546954040191546521E002DF1DC30BD70B500245B
